:1000000003308A00092B000050103D102518B22A39
:100010000000C22758103D102518353655005410E1
:100020003D102518B32A00002F30840083130008E8
:10003000031927280230F800F701F70B1D28F80BE9
:100040001C289730F700F70B2328800B1A2808008C
:10005000360EF039F7000F300805770488000000ED
:10006000081432283328081008000808F700080E82
:100070000F39F80008008316081088100811831241
:1000800088100F3083160805F03888008312081591
:1000900000000814000035207808B60008100000A1
:1000A0000814522835207808B50008100F30831640
:1000B000080588008312360EF700F030F705770840
:1000C0003504F8007808B500B51B4128331C8810AA
:1000D000331888140000081100000810340EB50011
:1000E0000F30B5053508B600282034080F39B500A3
:1000F000B600282008002830A6000C30A7000130E8
:10010000A8000630A9000810881008110F308316C7
:10011000080588000810881008110F308312AF00FE
:1001200014200130A5002508033C031C9F28033040
:10013000B60028200530AF001420A50A932802300D
:10014000B60028200530AF001420A5012508033C87
:10015000031CB62826302507840083130008AA0054
:10016000B3012A08B4003B20A50AA6288A110A1266
:10017000362B8E30F7002808F8002708F900FA011E
:10018000F808031DCD287908F800F9010830F702B6
:10019000F808031DCD28F701D5280310F81BD42833
:1001A000F90DF80DF703CD28F8138A110A126B2BFD
:1001B000270803199D29B3002B0803199D29B302B1
:1001C000031CE7287F30B30703189D29ED288130F1
:1001D000B302031C9D2903199D293308F700F80178
:1001E000F901FA01B2012808B100B1172908B000DD
:1001F0002A08AF001930B3002E08AF0203181029E7
:100200000130B00203181029B10203181029B202FC
:1002100003181029B20AB10AB00A2E08AF07422902
:100220002D08B00203182B290130B10203182B2925
:10023000B20203182B29B20AB10A2D08B0072E0802
:10024000AF07031C4229B00A031D4229B10A031D4E
:100250004229B20A42292C088038B10203184129E8
:100260000130B20203184129B20A2C088038B107C4
:100270002D08B007031C1F29B10A031D1F29B20A4C
:100280001F297A14B30B452950290310AF0DB00D67
:10029000B10DB20D0310FA0DF90DF80DB40DFC28D7
:1002A000341C58290310F80CF90CFA0CB40C5B2917
:1002B000F70303199D29B41B84290310AF0DB00D5A
:1002C000B10DB20D2E08AF02031870290130B00233
:1002D00003187029B10203187029B202031C932974
:1002E0002D08B00203187B290130B10203187B29C5
:1002F000B202031C93292C088038B1020318842908
:100300000130B202031C9329FA0A031D9329F90A4A
:10031000031D9329F80A031D9329F70A03199D2940
:10032000F80CF90CFA0C2808B3002C08B306B31F1C
:100330009B29F817A129F813A129F701F801F90160
:10034000FA018A110A127C2B8E30F7002508F70279
:100350002608F9002708F800F917F7080319BB2940
:100360000310F908031DB729F8080319BB29F90C74
:10037000F80CF70BB029A61FC229F809F909F80AE9
:100380000319F90A8A110A12852B300BC829CB29C7
:100390004030B100CC29B10101302F02B107310842
:1003A0008038B200B3013208B4003B2008002E08A8
:1003B000073A0319E5290B3A0319EA29063A031902
:1003C000F229023A0319F829FD290130AF00B000E3
:1003D000C521022AB3010130B4003B200230AF0036
:1003E0001420022A0130AF000230B000C521022AD9
:1003F000B3011030B4003B20022A0130B3002E08B4
:10040000B4003B2008000B08A6008B1383160317CB
:100410008C170C140000000083120313A61B8B170B
:1004200003183A2A03170C087F390313A600031791
:100430000D080313A70003170F080313A8002608CD
:10044000AE00D721270803178D00031328080317D0
:100450008F0003130B08A9008B13831603178C1747
:100460000C140000000083120313A91B8B17A50BAB
:100470003A2A592A03170C0D0E0D7F390313A600D3
:1004800003170D080313A70003170F080313A80091
:100490002608AE00D721270803178D00031328086C
:1004A00003178F008D0A03198F0A03100313A50B7E
:1004B000032A08002808F80127020318622A2708DF
:1004C000F7006E2AF7010830A900A70DF70D2808DC
:1004D00077020318F700F80DA90B652A08007808C1
:1004E0002508A7006430A8005A227708A5007808DC
:1004F0003030031D822AA61C892AA619892A261AA9
:100500002030852AA61126122614F8077808AE0096
:10051000D7212508A7000A30A8005A227708A5008D
:1005200078083030031D9A2AA6199E2A261C9E2A76
:10053000261A2030F8077808AE00D7213030A507FA
:100540002508AE00D7210800AD010408AC002D102D
:10055000831B2D14260EF038A800A807E23EA90040
:10056000323EAB0026080F39A907A907AB07E93EC1
:10057000AA00AA07AA07250E0F39AA07AB07AA0DDA
:10058000AB0DAB09AB0D25080F39AB07A80D073034
:10059000A7000A30AB07AA03031CCA2AAA07A903AB
:1005A000031CCE2AA907A803031CD22AA807A70365
:1005B000031CD62A27308400831307302C052C1304
:1005C00084072B30040203192C170008F700031DC1
:1005D000F12A2C1BF12A2C1A032BAC19F12A2030FA
:1005E000F42AAC152C123030F707A6010408A50038
:1005F0002610831B26147708AE00D7212508840017
:10060000831326188317840A2C1FE12A8A110A12E1
:10061000CF2B03081F398300713083168F009001A0
:100620000F088312A001A201A101A301FF30A400C1
:10063000831603170908C039890003131F129F127C
:100640000030031788008312870188018901831312
:10065000831603130914891409158915FF308700BF
:100660008312A4008316880083127B280730900031
:100670008E018F018E0100001F179F1783169F1791
:1006800083121F14831603170908C0398900031346
:100690001F129F122030031788001430F8008312B5
:1006A00003131F08C33978049F000D30F700F70BC0
:1006B000572B9F149F185A2B1E08F90083161E08EB
:1006C000F80079088312A6007808A5002608A8007B
:1006D0007808A700B9287A08AA007908A90078083C
:1006E000A8007708A700AA30AE00F130AD000230B4
:1006F000AC008030AB00D8287A08A8007908A700A1
:100700007808A6007708A500A4297808A300230884
:10071000643C031C8E2B073090008F2B90010F0838
:10072000FA000E08F7000F087A02031D8F2B7708D6
:10073000A0002008313C0318A62B0130A0008E0138
:100740008F018E010000A10A0319A20A0130AF0037
:10075000B000C521043003178D0000308F00031056
:1007600004300313A50003222008A5000130A600D1
:100770006F220130AF000230B000C52109300317ED
:100780008D0000308F00031006300313A5000322F4
:10079000083084002208A6002108A500A42A0A30F7
:1007A000AF000130B000C5210F3003178D000030BD
:1007B0008F00031004300313A50003222308A500B3
:1007C0000330A6006F22DF30AE00D7214330AE00E9
:0A07D000D721831603174D2B630099
:04400E00E42FFF3F5D
:00000001FF
;PIC16F887
;CRC=183B  CREATED="14-May-23 15:28"
