:1000000000308A00A32800003008F8012F020318EE
:100010000C282F08F7001828F7010830B100AF0DA1
:10002000F70D300877020318F700F80DB10B0F2811
:1000300008002F3084008313000803192C28023095
:10004000F800F701F70B2228F80B21289730F7006A
:10005000F70B2828800B1F280800AE01AD012C08E3
:10006000B0002B08AF00B2010A30B100F801F9016D
:10007000F701FA013208031D4028310803195A28F4
:100080001030B3000310AF0DB00DF70DFA0D3208AC
:100090007A02031D4D2831087702031C56283108C7
:1000A000F702031CFA033208FA020314F80DF90DE3
:1000B000B30B42287908FA002E087A02031CA02804
:1000C000031D662878082D020318A028831609103E
:1000D0008312091083168910831289142A08AF002D
:1000E0000A30B00004202030780784008313000811
:1000F000AF008316880183122F0888000530AF00F7
:10010000192083160910831209148316891083128B
:1001100089102A08AF000A30B00004202030770789
:10012000840083130008AF008316880183122F0810
:1001300088000530AF001920AD0A0319AE0A2F2838
:100140008A110A12E12803081F39830071308316CF
:100150008F0090010F0803170908C03989000313A5
:100160001F129F1200300317880083128701880135
:1001700089018313C0300313A000F930A100A4301B
:10018000A200B030A3009930A4009230A5008230C4
:10019000A600F830A7008030A8009030A900831690
:1001A0000914891409118911003088008312AA01E9
:1001B0002A08633C031CE3280130AC002C30AB0060
:0A01C0002D28AA0AD828D7286300CA
:04400E00E42FFF3F5D
:00000001FF
;PIC16F887
;CRC=2DD6  CREATED="03-Apr-23 21:58"
