:1000000002308A009E2A0000CC26B31ABA12301998
:1000100075100000263084008313000803191D2882
:100020000230F800F701F70B1328F80B122897306D
:10003000F700F70B1928800B102808002D0EF03957
:10004000F7000F30080577048800000008142828FE
:100050002928081008000808F700080E0F39F800D2
:1000600008008316081088100811831288100F30BA
:1000700083160805F038880083120815000008145C
:1000800000002B207808AD00081000000814482854
:100090002B207808AC0008100F3083160805880064
:1000A00083122D0EF700F030F70577082C04F800C6
:1000B0007808AC00AC1B37282A1C88102A18881432
:1000C00000000811000008102B0EAC000F30AC052A
:1000D0002C08AD001E202B080F39AC00AD001E20EF
:1000E00008002830A2000C30A3000130A400063024
:1000F000A5000810881008110F3083160805880025
:100100000810881008110F308312A6000A20013051
:10011000A1002108033C031C95280330AD001E20DC
:100120000530A6000A20A10A89280230AD001E2051
:100130000530A6000A20A1012108033C031CAC28BD
:1001400022302107840083130008A600AA01260894
:10015000AB003120A10A9C288A110A12BD2A8E30D8
:10016000F7002408F8002308F900FA01F808031D35
:10017000C3287908F800F9010830F702F808031DD0
:10018000C328F701CB280310F81BCA28F90DF80D76
:10019000F703C328F8138A110A12EC2A230803195B
:1001A0009329AF00270803199329AF02031CDD2808
:1001B0007F30AF0703189329E3288130AF02031C77
:1001C0009329031993292F08F700F801F901FA017F
:1001D000AE012408AD00AD172508AC002608AB0021
:1001E0001930AF002A08AB02031806290130AC020F
:1001F00003180629AD0203180629AE0203180629C2
:10020000AE0AAD0AAC0A2A08AB0738292908AC02A5
:10021000031821290130AD0203182129AE02031869
:100220002129AE0AAD0A2908AC072A08AB07031C2E
:100230003829AC0A031D3829AD0A031D3829AE0A36
:10024000382928088038AD02031837290130AE025A
:1002500003183729AE0A28088038AD072908AC07EB
:10026000031C1529AD0A031D1529AE0A15297A1498
:10027000AF0B3B2946290310AB0DAC0DAD0DAE0DF8
:100280000310FA0DF90DF80DB00DF228301C4E29AF
:100290000310F80CF90CFA0CB00C5129F7030319F0
:1002A0009329B01B7A290310AB0DAC0DAD0DAE0D2B
:1002B0002A08AB02031866290130AC02031866292C
:1002C000AD0203186629AE02031C89292908AC0275
:1002D000031871290130AD0203187129AE02031C05
:1002E000892928088038AD0203187A290130AE0226
:1002F000031C8929FA0A031D8929F90A031D892982
:10030000F80A031D8929F70A03199329F80CF90C37
:10031000FA0C2408AF002808AF06AF1F9129F81780
:100320009729F8139729F701F801F901FA018A11C1
:100330000A12FD2A8E30F7002108F7022208F90080
:100340002308F800F917F7080319B1290310F90871
:10035000031DAD29F8080319B129F90CF80CF70BA6
:10036000A629A21FB829F809F909F80A0319F90AF8
:100370008A110A12062B270BBE29C1294030A8007A
:10038000C229A80101302602A80728088038A90040
:10039000AA012908AB00312008002508073A0319F3
:1003A000DB290B3A0319E029063A0319E829023A36
:1003B0000319EE29F3290130A600A700BB21F82973
:1003C000AA010130AB0031200230A6000A20F82932
:1003D0000130A6000230A700BB21F829AA01103085
:1003E000AB003120F8290130AA002508AB003120EC
:1003F00008000B08A2008B13831603178C170C142C
:100400000000000083120313A21B8B170318302A6D
:1004100003170C087F390313A20003170D080313F9
:10042000A30003170F080313A4002208A500CD2181
:10043000230803178D000313240803178F000313E9
:100440000B08A5008B13831603178C170C140000E0
:10045000000083120313A51B8B17A10B302A4F2A10
:1004600003170C0D0E0D7F390313A20003170D089F
:100470000313A30003170F080313A4002208A50009
:10048000CD21230803178D000313240803178F00C1
:100490008D0A03198F0A03100313A10BF9298A117E
:1004A0000A121A2B2408F801230203185A2A2308D7
:1004B000F700662AF7010830A500A30DF70D240800
:1004C00077020318F700F80DA50B5D2A08007808DD
:1004D0002108A3006430A40052227708A100780804
:1004E0003030031D7A2AA21C812AA219812A221ADD
:1004F00020307D2AA21122122214F8077808A500C4
:10050000CD212108A3000A30A40052227708A100BF
:1005100078083030031D922AA219962A221C962AA6
:10052000221A2030F8077808A500CD213030A10725
:100530002108A500CD218A110A121F2B03081F399B
:100540008300713083168F0090010F08031709088C
:10055000C039890003131F129F120030031788004F
:1005600083128701880189018313831603130914F9
:10057000891409158915831271281F179F1783166F
:100580009F1783121F14831603170908C0398900A7
:1005900003131F129F122030031788001430F80035
:1005A000831203131F08C33978049F002130F7001A
:1005B000F70BD82A9F149F18DB2A1E08F900831610
:1005C0001E08F80079088312A2007808A10022080A
:1005D000A4007808A300AF287A08A6007908A5002F
:1005E0007808A4007708A300AA30AA00F130A90077
:1005F0000230A8008030A700CE287A08A40079082D
:10060000A3007808A2007708A1009A297808A00022
:100610002130F700F70B0A2B0130A600A700BB2101
:10062000043003178D0000308F00031005300313D2
:10063000A100F9292008A1000130A200672A20307A
:10064000A500CD21DF30A500CD214330A500CD216F
:0806500083160317CE2A630094
:04400E00E42FFF3F5D
:00000001FF
;PIC16F887
;CRC=FD1F  CREATED="22-May-23 00:45"
