:1000000001308A00242900008E30F7002608F8000D
:100010002508F900FA01F808031D18287908F800E6
:10002000F9010830F702F808031D1828F701202805
:100030000310F81B1F28F90DF80DF7031828F81303
:100040008A110A12892925080319E828B10029080C
:100050000319E828B102031C32287F30B1070318C6
:10006000E82838288130B102031CE8280319E82861
:100070003108F700F801F901FA01B0012608AF00D4
:10008000AF172708AE002808AD001930B1002C08C2
:10009000AD0203185B280130AE0203185B28AF02E3
:1000A00003185B28B00203185B28B00AAF0AAE0A37
:1000B0002C08AD078D282B08AE02031876280130D6
:1000C000AF0203187628B00203187628B00AAF0AE8
:1000D0002B08AE072C08AD07031C8D28AE0A031DA4
:1000E0008D28AF0A031D8D28B00A8D282A08803874
:1000F000AF0203188C280130B00203188C28B00A14
:100100002A088038AF072B08AE07031C6A28AF0AFD
:10011000031D6A28B00A6A287A14B10B90289B281C
:100120000310AD0DAE0DAF0DB00D0310FA0DF90DAE
:10013000F80DB20D4728321CA3280310F80CF90C57
:10014000FA0CB20CA628F7030319E828B21BCF2833
:100150000310AD0DAE0DAF0DB00D2C08AD020318A0
:10016000BB280130AE020318BB28AF020318BB281E
:10017000B002031CDE282B08AE020318C62801308B
:10018000AF020318C628B002031CDE282A088038F4
:10019000AF020318CF280130B002031CDE28FA0A90
:1001A000031DDE28F90A031DDE28F80A031DDE28D8
:1001B000F70A0319E828F80CF90CFA0C2608B10024
:1001C0002A08B106B11FE628F817EC28F813EC2826
:1001D000F701F801F901FA018A110A129A298E3001
:1001E000F7002308F7022408F9002508F800F9179A
:1001F000F708031906290310F908031D0229F80856
:1002000003190629F90CF80CF70BFB28A41F0D297C
:10021000F809F909F80A0319F90A8A110A12A32937
:100220002330840083130008031923290230F800C7
:10023000F701F70B1929F80B18299730F700F70B7E
:100240001F29800B1629080003081F39830071300D
:1002500083168F0090010F08031787110C300313CA
:100260009900A230980090308312980083160317EB
:100270000908C039890003131F129F1200300317A9
:10028000880083128701880189018313FF30831658
:100290000313860001309500811383121F179F17E7
:1002A00083169F1783121F14831603170908C0397A
:1002B000890003131F129F12203003178800143087
:1002C000F800831203131F08C33978049F00063017
:1002D000F700F70B692900001430F8001F08C33934
:1002E00078049F000630F700F70B742900009F1474
:1002F0009F1878291E08F90083161E08F80079084F
:100300008312A4007808A3002408A6007808A5009A
:1003100004287A08A8007908A7007808A6007708BA
:10032000A500AA30AC00F130AB000230AA0080304A
:10033000A90023287A08A6007908A5007808A40057
:100340007708A300EF287908A2007808A100210807
:10035000A000831606168312061ABA290A30A300D3
:100360001021831606168312061EB1294C300C1E6E
:10037000B7299900831686168312861ACB290A306C
:10038000A3001021831686168312861EC229200818
:100390000C1EC82999000A30A30010216C296300A3
:04400E00E42FFF3F5D
:00000001FF
;PIC16F887
;CRC=ED65  CREATED="14-May-23 00:12"
