:1000000002308A00A22A0000D12A41104E24C922BF
:100010005410CB180000D12A41104E24C92254108C
:100020004B190001D12A41104E24C9225410B22587
:100030000000293084008313000803192C280230A3
:10004000F800F701F70B2228F80B21289730F7006A
:10005000F70B2828800B1F2808002F0EF039F70017
:100060000F30080577048800000008143728382866
:10007000081008000808F700080E0F39F8000800FB
:100080008316081088100811831288100F30831609
:100090000805F038880083120815000008140000D5
:1000A0003A207808AF0008100000081457283A20BA
:1000B0007808AE0008100F308316080588008312F8
:1000C0002F0EF700F030F70577082E04F8007808B7
:1000D000AE00AE1B46282C1C88102C18881400007B
:1000E0000811000008102D0EAE000F30AE052E08CE
:1000F000AF002D202D080F39AE00AF002D200800D5
:100100002830A5000C30A6000130A7000630A8005A
:100110000810881008110F30831608058800081091
:10012000881008110F308312A90019200130A40093
:100130002408033C031CA4280330AF002D20053005
:10014000A9001920A40A98280230AF002D200530FC
:10015000A9001920A4012408033C031CBB28253056
:100160002407840083130008A900AC012908AD000E
:100170004020A40AAB288A110A12D62A8E30F70032
:100180002708F8002608F900FA01F808031DD2280C
:100190007908F800F9010830F702F808031DD228A1
:1001A000F701DA280310F81BD928F90DF80DF70329
:1001B000D228F813080026080319A029B2002A083B
:1001C0000319A029B202031CEA287F30B2070318E2
:1001D000A029F0288130B202031CA0290319A0290C
:1001E0003208F700F801F901FA01B1012708B0005F
:1001F000B0172808AF002908AE001930B2002D084A
:10020000AE02031813290130AF0203181329B002FC
:1002100003181329B10203181329B10AB00AAF0A4F
:100220002D08AE0745292C08AF0203182E290130EE
:10023000B00203182E29B10203182E29B10AB00A00
:100240002C08AF072D08AE07031C4529AF0A031D74
:100250004529B00A031D4529B10A45292B088038D4
:10026000B002031844290130B10203184429B10A2D
:100270002B088038B0072C08AF07031C2229B00ACE
:10028000031D2229B10A22297A14B20B48295329C5
:100290000310AE0DAF0DB00DB10D0310FA0DF90D39
:1002A000F80DB30DFF28331C5B290310F80CF90C73
:1002B000FA0CB30C5E29F7030319A029B31B872995
:1002C0000310AE0DAF0DB00DB10D2D08AE02031829
:1002D00073290130AF0203187329B0020318732980
:1002E000B102031C96292C08AF0203187E290130A5
:1002F000B00203187E29B102031C96292B0880380E
:10030000B002031887290130B102031C9629FA0AAA
:10031000031D9629F90A031D9629F80A031D96293B
:10032000F70A0319A029F80CF90CFA0C2708B200F7
:100330002B08B206B21F9E29F817A429F813A42986
:10034000F701F801F901FA0108008E30F7002408DE
:10035000F7022508F9002608F800F917F70803192D
:10036000BC290310F908031DB829F8080319BC2992
:10037000F90CF80CF70BB129A51FC329F809F909E5
:10038000F80A0319F90A0800290BC729CA294030BD
:10039000AA00CB29AA0101302802AA072A0880381E
:1003A000AB00AC012B08AD00402008002708073A3D
:1003B0000319E4290B3A0319E929063A0319F1292B
:1003C000023A0319F729FC290130A800A900C42129
:1003D000012AAC010130AD0040200230A9001920F3
:1003E000012A0130A8000230A900C421012AAC0171
:1003F0001030AD004020012A0130AC002708AD00CC
:10040000402008002708F801260203180A2A2608B7
:10041000F700162AF7010830A800A60DF70D2708E7
:1004200077020318F700F80DA80B0D2A08007808CA
:100430002408A6006430A70002227708A4007808E8
:100440003030031D2A2AA51C312AA519312A251A64
:1004500020302D2AA51125122514F8077808A700A9
:10046000D6212408A6000A30A70002227708A4009B
:1004700078083030031D422AA519462A251C462A31
:10048000251A2030F8077808A700D6213030A407B5
:100490002408A700D62108000B08A4008B1383169C
:1004A00003178C170C140000000083120313A41B05
:1004B0008B1703170C087F390319A02A0313A40014
:1004C00003170D080313A50003170F080313A60055
:1004D0002408A700D621250803178D00031326083A
:1004E00003178F0003130B08A7008B138316031742
:1004F0008C170C140000000083120313A71B8B172A
:1005000003170C0D0E0D7F390319A02A0313A40045
:1005100003170D080313A50003170F080313A60004
:100520002408A700D621250803178D0003132608E9
:1005300003178F008D0A03198F0A03134C2A031720
:100540000313080003081F398300713083168F00DE
:1005500090010F088312A301A20183160317090853
:10056000C039890003131F129F120030031788003F
:1005700083128701880189018313FF3083160313D7
:10058000850083121F179F1783169F1783121F144E
:10059000831603170908C039890003131F129F121D
:1005A0000630031788008312031380280430F800F4
:1005B0001F08C33978049F009F149F18DD2A1E0866
:1005C000F90083161E08F80079088312A500780840
:1005D000A4002508A7007808A600BE207A08A90074
:1005E0007908A8007808A7007708A600AA30AD000F
:1005F000F130AC000230AB008030AA00DB207A087A
:10060000A7007908A6007808A5007708A400A5210E
:100610007808A0000830F8001F08C33978049F004C
:100620009F149F18112B1E08F90083161E08F8004E
:1006300079088312A5007808A4002508A700780887
:10064000A600BE207A08A9007908A8007808A700AB
:100650007708A600AA30AD00F130AC000230AB0044
:100660008030AA00DB207A08A7007908A600780865
:10067000A5007708A400A5217808A1000130A800F2
:10068000A900C4215430A700D6213130A700D621BB
:100690003D30A700D6212008A4000330A500172272
:1006A000DF30A700D6214330A700D6210930A800AB
:1006B0000130A900C4215430A700D6213230A70050
:1006C000D6213D30A700D6212108A4000330A50083
:1006D0001722DF30A700D6214330A700D6212008FB
:1006E0003C3C0318842B21083B3C031C842B033027
:1006F000A8000230A900C421043003178D00003087
:100700008F0003134C22AD2B21083C3C0318992B7E
:1007100020083B3C031C992B0330A8000230A900A1
:10072000C4210B3003178D0000308F0003134C22BF
:10073000AD2B20083C3C0318AD2B21083C3C031892
:10074000AD2B0330A8000230A900C42112300317DA
:0E0750008D0000308F0003134C22D62A630068
:04400E00E42FFF3F5D
:00000001FF
;PIC16F887
;CRC=F5AE  CREATED="30-May-23 00:20"
