:1000000002308A00B62A00000A108A100A118207FC
:10001000C034F934A434B034993492348234F8348E
:10002000803490340A108A100A1182070034013497
:1000300002340434083410342034403480344E34D4
:10004000E9327410E437201DA01230197510000039
:10005000293084008313000803193B280230F8007C
:10006000F701F70B3128F80B30289730F700F70B22
:100070003728800B2E280800300EF039F7000F309B
:10008000080577048800000008144628472808104F
:1000900008000808F700080E0F39F800080083165A
:1000A000081088100811831288100F308316080575
:1000B000F038880083120815000008140000492059
:1000C0007808B00008100000081466284920780855
:1000D000AF0008100F308316080588008312300E19
:1000E000F700F030F70577082F04F8007808AF0024
:1000F000AF1B55282D1C88102D18881400000811DE
:10010000000008102E0EAF000F30AF052F08B00012
:100110003C202E080F39AF00B0003C2008002830EA
:10012000A5000C30A6000130A7000630A80008107A
:10013000881008110F3083160805880008108810F1
:1001400008110F308312A90028200130A4002408D0
:10015000033C031CB3280330B0003C200530A90049
:100160002820A40AA7280230B0003C200530A900AE
:100170002820A4012408033C031CCA282530240796
:10018000840083130008A900AD012908AE004F20A8
:10019000A40ABA288A110A12DD2A8E30F70027082D
:1001A000F8002608F900FA01F808031DE12879088B
:1001B000F800F9010830F702F808031DE128F701FB
:1001C000E9280310F81BE828F90DF80DF703E128DA
:1001D000F813080028080319AF29B4002C080319E4
:1001E000AF29B402031CF9287F30B4070318AF29E4
:1001F000FF288130B402031CAF290319AF2934084A
:10020000F700F801F901FA01B3012908B200B217A9
:100210002A08B1002B08B0001930B4002F08B00232
:10022000031822290130B10203182229B20203184F
:100230002229B30203182229B30AB20AB10A2F08ED
:10024000B00754292E08B10203183D290130B2022B
:1002500003183D29B30203183D29B30AB20A2E0838
:10026000B1072F08B007031C5429B10A031D5429F4
:10027000B20A031D5429B30A54292D088038B2024A
:10028000031853290130B30203185329B30A2D0868
:100290008038B2072E08B107031C3129B20A031DAA
:1002A0003129B30A31297A14B40B57296229031072
:1002B000B00DB10DB20DB30D0310FA0DF90DF80D1F
:1002C000B50D0E29351C6A290310F80CF90CFA0C2F
:1002D000B50C6D29F7030319AF29B51B9629031037
:1002E000B00DB10DB20DB30D2F08B0020318822965
:1002F0000130B10203188229B20203188229B30225
:10030000031CA5292E08B10203188D290130B20261
:1003100003188D29B302031CA5292D088038B202C9
:10032000031896290130B302031CA529FA0A031DFC
:10033000A529F90A031DA529F80A031DA529F70A0D
:100340000319AF29F80CF90CFA0C2908B4002D0890
:10035000B406B41FAD29F817B329F813B329F70170
:10036000F801F901FA0108008E30F7002408F702BD
:100370002508F9002608F800F917F7080319CB2912
:100380000310F908031DC729F8080319CB29F90C34
:10039000F80CF70BC029A51FD229F809F909F80AAA
:1003A0000319F90A08002A0BD629D9294030AB00D5
:1003B000DA29AB0101302902AB072B088038AC00E9
:1003C000AD012C08AE004F2008002808073A031999
:1003D000F3290B3A0319F829063A0319002A023ABD
:1003E0000319062A0B2A0130A900AA00D321102ADA
:1003F000AD010130AE004F200230A9002820102AA4
:100400000130A9000230AA00D321102AAD0110301A
:10041000AE004F20102A0130AD002808AE004F205A
:1004200008000B08A5008B13831603178C170C14F8
:100430000000000083120313A51B8B170318482A22
:1004400003170C087F390313A50003170D080313C6
:10045000A60003170F080313A7002508A800E5212D
:10046000260803178D000313270803178F000313B3
:100470000B08A8008B13831603178C170C140000AD
:10048000000083120313A81B8B17A40B482A672AAA
:1004900003170C0D0E0D7F390313A50003170D086C
:1004A0000313A60003170F080313A7002508A800CD
:1004B000E521260803178D000313270803178F0073
:1004C0008D0A03198F0A03100313A40B112A8A1132
:1004D0000A12952B2708F80126020318722A26080B
:1004E000F7007E2AF7010830A800A60DF70D2708AF
:1004F00077020318F700F80DA80B752A0800780892
:100500002408A6006430A7006A227708A4007808AF
:100510003030031D922AA51C992AA519992A251A5B
:100520002030952AA51125122514F8077808A8006F
:10053000E5212408A6000A30A7006A227708A40053
:1005400078083030031DAA2AA519AE2A251CAE2A28
:10055000251A2030F8077808A800E5213030A407D4
:100560002408A800E5218A110A129A2B03081F39D2
:100570008300713083168F0090010F088312A10150
:10058000A001FF30A300831603170908C0398900B2
:1005900003131F129F120030031788008312870174
:1005A00088018901831300308316031387008312A7
:1005B000A3008316860083128F281F179F178316A8
:1005C0009F1783121F14831603170908C039890067
:1005D00003131F129F126030031788001430F800B5
:1005E000831203131F08C33978049F002130F700DA
:1005F000F70BF82A9F149F18FB2A1E08F900831690
:100600001E08F80079088312A5007808A4002508C0
:10061000A7007808A600CD207A08AB007908AA00C8
:100620007808A9007708A8001430AF00AE30AE00FB
:100630002330AD008230AC00EA207A08A7007908A8
:10064000A6007808A5007708A4007A08AB0079080E
:10065000AA007808A9007708A800AF01AE012030F1
:10066000AD008230AC00EA207A08A7007908A60025
:100670007808A5007708A400B4217908A1007808BB
:10068000A0002130F700F70B432B2108FA002008C7
:100690000420A400831686018312240886001830E3
:1006A000F8001F08C33978049F002130F700F70BCA
:1006B000572B9F149F185A2B1E08F90083161E08EB
:1006C000F80079088312A5007808A4002508A7007F
:1006D0007808A600CD207A08AB007908AA0078082F
:1006E000A9007708A800AA30AF00F130AE000230B0
:1006F000AD008030AC00EA207A08A7007908A60097
:100700007808A5007708A400B4217808A200013079
:10071000A900AA00D3211F3003178D0000308F00DD
:1007200003100B300313A400112A2208A400013087
:10073000A5007F2A2030A800E521A008031DAA2BD0
:10074000A108031DAA2B0030A30083168701831282
:100750008701DB2B2208323C031CCF2B2108FA0037
:1007600020081220A4000030A30083168701831202
:10077000240887000230A4009630A9002820A40B8A
:10078000BC2B0030A300831687018312870102303F
:10079000A4009630A9002820A40BC92BDB2B21082C
:1007A000FA0020081220A4000030A300831687015D
:0E07B00083122408870083160317EE2A6300C5
:04400E00E42FFF3F5D
:00000001FF
;PIC16F887
;CRC=0904  CREATED="14-May-23 15:40"
