:1000000000308A00192800002C08F8012B02031880
:100010000C282B08F7001828F7010830AD00AB0DAD
:10002000F70D2C0877020318F700F80DAD0B0F2819
:10003000080003081F398300713083168F00900178
:100040000F0803170908C039890003131F129F12F4
:100050000030031788008312870188018901831308
:10006000C0300313A000F930A100A430A200B030CA
:10007000A3009930A4009230A5008230A600F83089
:10008000A7008030A8009030A900003083168600B9
:1000900088000108C73938388100831281010108BE
:1000A000AA002A080C3C031858280130AA00810035
:1000B0002A08AB000A30AC00042020307707840007
:1000C00083130008AB008316860183122B08860079
:1000D0002A08AB000A30AC000420203078078400E6
:1000E00083130008AB008316880183122B08880055
:0400F0004F28630032
:04400E00E42FFF3F5D
:00000001FF
;PIC16F887
;CRC=09FD  CREATED="22-May-23 00:34"
