:1000000000308A0018280000223084008313000882
:10001000031917280230F800F701F70B0D28F80B29
:100020000C289730F700F70B1328800B0A280800DC
:1000300003081F398300713083168F0090010F0869
:1000400003170908C039890003131F129F120030DB
:100050000317880083128701880189018313FF3009
:100060008316031388000810831208140230A100BD
:10007000FA30A2000420A10B38288316081083123E
:1000800008100230A100FA30A2000420A10B43287E
:0600900083163328630013
:04400E00E52FFF3F5C
:00000001FF
;PIC16F887
;CRC=B602  CREATED="30-Mar-23 22:24"
