:1000000000308A00542800002D308400831300083B
:10001000031917280230F800F701F70B0D28F80B29
:100020000C289730F700F70B1328800B0A280800DC
:10003000AB01AB1B1F282B08043C031C33282030CA
:100040002B07840083130008AC00831688018312F9
:100050002C0888000230AC00FA30AD000420AC0B54
:100060002C28AB0A19288A110A128728AB01AB1B6E
:100070003D282B08043C031C512825302B07840005
:1000800083130008AC008316880183122C088800B3
:100090000230AC00FA30AD000420AC0B4A28AB0AA9
:1000A00037288A110A128A2803081F398300713001
:1000B00083168F0090010F0803170908C0398900C3
:1000C00003131F129F120030031788008312870149
:1000D00088018901831301300313A0000230A100BD
:1000E0000430A2000830A300A4010F30A50007309F
:1000F000A6000330A7000130A800A9010030831634
:10010000880001308312AA002A0B89281828AA0126
:0C0110008C2836280130AA0084286300E7
:04400E00E52FFF3F5C
:00000001FF
;PIC16F887
;CRC=539D  CREATED="24-Mar-23 20:53"
