:1000000003308A006C2B00000A108A100A11820744
:10001000C034F934A434B034993492348234F8348E
:1000200080349034C237F81E2518352675004126D5
:1000300041294D00201020102000D22A4E1000012E
:10004000532A4F280000333084008313000803191B
:1000500036280230F800F701F70B2C28F80B2B2874
:100060009730F700F70B3228800B292808003A0E4A
:10007000F039F7000F3008057704880000000814F5
:1000800041284228081008000808F700080E0F3918
:10009000F8000800831608108810081183128810D1
:1000A0000F3083160805F038880083120815000009
:1000B0000814000044207808BA0008100000081452
:1000C000612844207808B90008100F30831608050D
:1000D000880083123A0EF700F030F70577083904EC
:1000E000F8007808B900B91B5028371C8810371859
:1000F00088140000081100000810380EB9000F30F5
:10010000B9053908BA00372038080F39B900BA00E4
:10011000372008002830AA000C30AB000130AC00BA
:100120000630AD000810881008110F30831608053E
:1001300088000810881008110F308312B3002320A4
:100140000130A9002908033C031CAE280330BA0083
:1001500037200530B3002320A90AA2280230BA00B4
:1001600037200530B3002320A9012908033C031CD4
:10017000C5282A302907840083130008AE00B70180
:100180002E08B8004A20A90AB5288A110A12A12B04
:100190008E30F7002C08F8002B08F900FA01F80857
:1001A000031DDC287908F800F9010830F702F80887
:1001B000031DDC28F701E4280310F81BE328F90DE0
:1001C000F80DF703DC28F81308002B080319AA29F7
:1001D000B7002F080319AA29B702031CF4287F309F
:1001E000B7070318AA29FA288130B702031CAA29E5
:1001F0000319AA293708F700F801F901FA01B60135
:100200002C08B500B5172D08B4002E08B30019301E
:10021000B7003208B30203181D290130B4020318D5
:100220001D29B50203181D29B60203181D29B60A97
:10023000B50AB40A3208B3074F293108B4020318CB
:1002400038290130B50203183829B60203183829B5
:10025000B60AB50A3108B4073208B307031C4F29A0
:10026000B40A031D4F29B50A031D4F29B60A4F29A9
:1002700030088038B50203184E290130B602031841
:100280004E29B60A30088038B5073108B407031C78
:100290002C29B50A031D2C29B60A2C297A14B70B70
:1002A00052295D290310B30DB40DB50DB60D031021
:1002B000FA0DF90DF80DB80D0929381C6529031040
:1002C000F80CF90CFA0CB80C6829F7030319AA29E1
:1002D000B81B91290310B30DB40DB50DB60D32083E
:1002E000B30203187D290130B40203187D29B50239
:1002F00003187D29B602031CA0293108B402031893
:1003000088290130B50203188829B602031CA029E8
:1003100030088038B502031891290130B602031C59
:10032000A029FA0A031DA029F90A031DA029F80A29
:10033000031DA029F70A0319AA29F80CF90CFA0CD5
:100340002C08B7003008B706B71FA829F817AE2940
:10035000F813AE29F701F801F901FA0108008E300F
:10036000F7002908F7022A08F9002B08F800F91706
:10037000F7080319C6290310F908031DC229F80854
:100380000319C629F90CF80CF70BBB29AA1FCD29B4
:10039000F809F909F80A0319F90A08002C08F80104
:1003A0002B020318D6292B08F700E229F7010830A1
:1003B000AD00AB0DF70D2C0877020318F700F80D10
:1003C000AD0BD9290800340BE629E9294030B500E6
:1003D000EA29B50101303302B50735088038B60087
:1003E000B7013608B8004A2008003208073A031956
:1003F000032A0B3A0319082A063A0319102A023A6B
:100400000319162A1B2A0130B300B400E321202A65
:10041000B7010130B8004A200230B3002320202A5F
:100420000130B3000230B400E321202AB7011030BC
:10043000B8004A20202A0130B7003208B8004A200C
:10044000080078082908AB006430AC00CE2177089A
:10045000A90078083030031D342AAA1C3B2AAA19A7
:100460003B2A2A1A2030372AAA112A122A14F807FE
:100470007808B200F5212908AB000A30AC00CE2183
:100480007708A90078083030031D4C2AAA19502A91
:100490002A1C502A2A1A2030F8077808B200F521C1
:1004A0003030A9072908B200F5218A110A12C62C9A
:1004B0000B08AA008B13831603178C170C1400006B
:1004C000000083120313AA1B8B1703188F2A03172C
:1004D0000C087F390313AA0003170D080313AB00A0
:1004E00003170F080313AC002A08B200F5212B08EC
:1004F00003178D0003132C0803178F0003130B0839
:10050000AD008B13831603178C170C14000000002A
:1005100083120313AD1B8B17A90B8F2AAE2A031767
:100520000C0D0E0D7F390313AA0003170D080313DA
:10053000AB0003170F080313AC002A08B200F52123
:100540002B0803178D0003132C0803178F008D0A47
:1005500003198F0A03100313A90B582A8A110A12D0
:10056000D52CB1010408B0003110831B31142A0EC0
:10057000F038AC00AC07E23EAD00323EAF002A08D6
:100580000F39AD07AD07AF07E93EAE00AE07AE07C6
:10059000290E0F39AE07AF07AE0DAF0DAF09AF0D86
:1005A00029080F39AF07AC0D0730AB000A30AF0791
:1005B000AE03031CD72AAE07AD03031CDB2AAD072D
:1005C000AC03031CDF2AAC07AB03031CE32A2B306C
:1005D0008400831307303005301384072F30040262
:1005E000031930170008F700031DFE2A301BFE2AEE
:1005F000301A102BB019FE2A2030012BB015301202
:100600003030F707AA010408A9002A10831B2A1416
:100610007708B200F5212908840083132A1883176C
:10062000840A301FEE2A8A110A12DC2C0B08A9005A
:100630008B13831603178C170C1400000000831211
:100640000313A91B8B1703170C087F3903196A2B97
:100650000313A90003170D080313AA0003170F08BB
:100660000313AB002908B200F5212A0803178D00F7
:1006700003132B0803178F0003130B08AC008B1315
:10068000831603178C170C14000000008312031349
:10069000AC1B8B1703170C0D0E0D7F3903196A2B3A
:1006A0000313A90003170D080313AA0003170F086B
:1006B0000313AB002908B200F5212A0803178D00A7
:1006C00003132B0803178F008D0A03198F0A0313D6
:1006D000162B03170313080003081F39830071301A
:1006E00083168F0090010F088312A001A101A201BF
:1006F000A401A301A501FF30A600A801A70183164C
:1007000003170908C039890003131F129F12003014
:100710000317880083128701880189018313003041
:100720008316031385008600183087008312A60005
:100730000030831688000910891009158911831269
:100740008A281F179F1783169F1783121F1483165B
:1007500003170908C039890003131F129F12803044
:10076000031788001C30F800831203131F08C339D5
:1007700078049F0090018E018F018E010000831686
:100780000108C03907388100643083128100A61542
:1007900026088316870083128719D22B0130A00008
:1007A0000730900026162608831687008312071A42
:1007B000DC2B0230A0009001200B372C9F149F18D7
:1007C000DF2B1E08F90083161E08F8007908831233
:1007D000AA007808A9002A08AC007808AB00C82055
:1007E0007A08AE007908AD007808AC007708AB0055
:1007F000AA30B200F130B1000230B0008030AF005A
:10080000E5207A08AC007908AB007808AA007708E0
:10081000A900AF217808A1000F08FA000E08F70020
:100820000F087A02031D0C2C7708A2002208183C3E
:10083000031D1D2CA30A0319A40A0B1D362C6430BA
:100840008100A50A0B112508063C031C2C2C8316DD
:10085000091083120914362C2508093C031C352C79
:100860008316091083120910362CA5019D2C20082F
:10087000023C031D6F2C9F149F183C2C1E08F9008E
:1008800083161E08F80079088312AA007808A900C8
:100890002A08AC007808AB00C8207A08AE007908B6
:1008A000AD007808AC007708AB00AA30B200F13098
:1008B000B1000230B0008030AF00E5207A08AC0013
:1008C0007908AB007808AA007708A900AF2178085A
:1008D000A100900183160910831209109D2C9F140A
:1008E0009F18702C1E08F90083161E08F80079085E
:1008F0008312AA007808A9002A08AC007808AB0087
:10090000C8207A08AE007908AD007808AC007708F6
:10091000AB00AA30B200F130B1000230B00080303C
:10092000AF00E5207A08AC007908AB007808AA008F
:100930007708A900AF217808A1002108AB000A3090
:10094000AC00CE2178080420A9008316850183120B
:10095000290885002108AB000A30AC00CE217708B9
:100960000420A9008316860183122908860001301D
:10097000B300B400E3215030B200F5213D30B200A5
:10098000F5212208A9000130AA00212A0130B30074
:100990000230B400E321123003178D0000308F00C5
:1009A000031004300313A900582A083084002408D7
:1009B000AA002308A900B12A0A30B3000130B4000C
:1009C000E3212108283C0318ED2C173003178D0074
:1009D00000308F0003131623F42C1A3003178D00F8
:1009E00000308F00031316230D30B3000230B40023
:1009F000E321200B032D1D3003178D0000308F00E5
:100A0000031316230D2DA008031D0D2D20300317F1
:0E0A10008D0000308F0003131623C72B6300E8
:04400E00E52FFF3F5C
:00000001FF
;PIC16F887
;CRC=2892  CREATED="23-May-23 16:39"
