:1000000000308A0060280000FF00030E8301A10079
:100010000A08A0008A010408A2007708A300780853
:10002000A4007908A5007A08A600831383120B1E8A
:100030001B288B182C28220884002308F70024088A
:10004000F8002508F9002608FA0020088A00210E89
:100050008300FF0E7F0E09008A110A122F288316D3
:100060008910831289108B108A110A121B283508F7
:10007000F801340203183F283408F7004B28F70131
:100080000830B600B40DF70D350877020318F700F5
:10009000F80DB60B422808003530840083130008A1
:1000A00003195F280230F800F701F70B5528F80B09
:1000B00054289730F700F70B5B28800B5228080074
:1000C00003081F398300713083168F0090010F08D9
:1000D0008312A701A801FF30B30083160317090894
:1000E000C039890003131F129F12003003178800C4
:1000F00083128701880189018313C0300313A9008B
:10010000F930AA00A430AB00B030AC009930AD009B
:100110009230AE008230AF00F830B0008030B100D5
:100120009030B200FF3083168500003087008312C4
:10013000B3008316880009148914091189118600F7
:100140000108C739383881008312810135309000A9
:100150008E01FF308F008E000000C0308B040B1624
:100160008316011383120108A7002708193C031DF9
:10017000BD2801308100A700A80A2708B4000A3072
:10018000B500372029307807840083130008B400B5
:100190000030B300831687018312340887002708D4
:1001A000B4000A30B5003720293077078400831364
:1001B0000008B400831688018312340888000B1CE1
:1001C000EC28831609100130831289068E01FF3056
:1001D0008F008E0000000B10831686148312861881
:1001E00004290C30B400FA30B5004C20B40BF328CD
:1001F000831689100230831289060C30B400FA305D
:0C020000B5004C20B40BFF28B3286300AD
:04400E00E42FFF3F5D
:00000001FF
;PIC16F887
;CRC=FCF4  CREATED="29-May-23 12:43"
