:1000000001308A0092290000C3377537F41E251885
:10001000B33A0000273084008313000803191D2819
:100020000230F800F701F70B1328F80B122897306D
:10003000F700F70B1928800B102808002E0EF03956
:10004000F7000F30080577048800000008142828FE
:100050002928081008000808F700080E0F39F800D2
:1000600008008316081088100811831288100F30BA
:1000700083160805F038880083120815000008145C
:1000800000002B207808AE00081000000814482853
:100090002B207808AD0008100F3083160805880063
:1000A00083122E0EF700F030F70577082D04F800C4
:1000B0007808AD00AD1B37282B1C88102B1888142E
:1000C00000000811000008102C0EAD000F30AD0527
:1000D0002D08AE001E202C080F39AD00AE001E20EA
:1000E00008002830A2000C30A3000130A400063024
:1000F000A5000810881008110F3083160805880025
:100100000810881008110F308312A7000A20013050
:10011000A1002108033C031C95280330AE001E20DB
:100120000530A7000A20A10A89280230AE001E204F
:100130000530A7000A20A1012108033C031CAC28BC
:1001400022302107840083130008A600AB01260893
:10015000AC003120A10A9C288A110A12B429280B6C
:10016000B228B5284030A900B628A90101302702DD
:10017000A90729088038AA00AB012A08AC00312061
:1001800008002608073A0319CF280B3A0319D42888
:10019000063A0319DC28023A0319E228E72801305D
:1001A000A700A800AF20EC28AB010130AC00312043
:1001B0000230A7000A20EC280130A7000230A80076
:1001C000AF20EC28AB011030AC003120EC2801301E
:1001D000AB002608AC00312008000B08A3008B13ED
:1001E000831603178C170C140000000083120313EE
:1001F000A31B8B170318242903170C087F3903133B
:10020000A30003170D080313A40003170F0803131B
:10021000A5002308A600C120240803178D0003139E
:10022000250803178F0003130B08A6008B138316F2
:1002300003178C170C140000000083120313A61B75
:100240008B17A20B2429432903170C0D0E0D7F39A0
:100250000313A30003170D080313A40003170F08CB
:100260000313A5002308A600C120240803178D004E
:100270000313250803178F008D0A03198F0A031033
:100280000313A20BED288A110A12C8292508F801C8
:10029000240203184E292408F7005A29F7010830D0
:1002A000A600A40DF70D250877020318F700F80D36
:1002B000A60B5129080078082208A4006430A50084
:1002C00046217708A20078083030031D6E29A31C50
:1002D0007529A3197529231A20307129A311231216
:1002E0002314F8077808A600C1202208A4000A30C9
:1002F000A50046217708A20078083030031D862922
:10030000A3198A29231C8A29231A2030F807780880
:10031000A600C1203030A2072208A600C1208A1101
:100320000A12CD2903081F398300713083168F000C
:1003300090010F0803170908C039890003131F1221
:100340009F120030031788008312870188018901FA
:100350008313FF308316031385000108C73938382B
:1003600081008312810171280108643C0319810115
:100370000130A700A800AF200108A1000430031736
:100380008D0000308F00031006300313A200ED280B
:0E0390002108A2000330A3005B29B4296300FA
:04400E00E42FFF3F5D
:00000001FF
;PIC16F887
;CRC=1FF3  CREATED="18-Apr-23 16:19"
