:1000000000308A001A280000303084008313000872
:10001000031917280230F800F701F70B0D28F80B29
:100020000C289730F700F70B1328800B0A288A1149
:100030000A12662803081F398300713083168F0067
:1000400090010F0803170908C039890003131F1214
:100050009F120030031788008312870188018901ED
:10006000831301300313A0000330A1000730A20066
:100070000F30A3001F30A4003F30A500A6007F3042
:10008000A700FF30A800A9018130AA004230AB00D0
:100090002430AC001830AD00AE010030831686006D
:1000A0008312AF01AF1B58282F080E3C031C682891
:1000B00020302F07840083130008B00083168601C8
:1000C0008312300886006430B0000428AF0A52283A
:0400D0005128630050
:04400E00E42FFF3F5D
:00000001FF
;PIC16F887
;CRC=1E21  CREATED="30-Mar-23 22:52"
