:1000000003308A00D62B000031183600C8326C3617
:100010006F10D73772366400C3377537F41E251852
:1000200033267500C3377537F41E2518332675003F
:10003000D4326D386539613A7539E51E2518332695
:10004000750031308400831300080319342802300E
:10005000F800F701F70B2A28F80B29289730F7004A
:10006000F70B3028800B27280800380EF039F700EE
:100070000F30080577048800000008143F28402846
:10008000081008000808F700080E0F39F8000800EB
:100090008316081088100811831288100F308316F9
:1000A0000805F038880083120815000008140000C5
:1000B00042207808B8000810000008145F28422089
:1000C0007808B70008100F308316080588008312DF
:1000D000380EF700F030F70577083704F800780895
:1000E000B700B71B4E28351C88103518881400003F
:1000F000081100000810360EB7000F30B70537089A
:10010000B800352036080F39B700B8003520080090
:100110002830A8000C30A9000130AA000630AB003E
:100120000810881008110F30831608058800081081
:10013000881008110F308312B10021200130A70070
:100140002708033C031CAC280330B80035200530D9
:10015000B1002120A70AA0280230B80035200530C0
:10016000B1002120A7012708033C031CC328283025
:100170002707840083130008AC00B5012C08B600E3
:100180004820A70AB3288A110A12FE2B0B08A700E1
:100190008B13831603178C170C14000000008312B6
:1001A0000313A71B8B1703170C087F3903191C298E
:1001B0000313A70003170D080313A80003170F0864
:1001C0000313A90027080C1EE32899002808031729
:1001D0008D000313290803178F0003130B08AA00CF
:1001E0008B13831603178C170C1400000000831266
:1001F0000313AA1B8B1703170C0D0E0D7F39031960
:100200001C290313A70003170D080313A8000317E5
:100210000F080313A90027080C1E0C2999002808B1
:1002200003178D000313290803178F008D0A031984
:100230008F0A0313C6280317031308000B08A8002E
:100240008B13831603178C170C1400000000831205
:100250000313A81B8B170318562903170C087F39A3
:100260000313A80003170D080313A90003170F08B1
:100270000313AA0028080C1E3B299900290803171C
:100280008D0003132A0803178F0003130B08AB001C
:100290008B13831603178C170C14000000008312B5
:1002A0000313AB1B8B17A70B5629762903170C0DCD
:1002B0000E0D7F390313A80003170D080313A900BF
:1002C00003170F080313AA0028080C1E65299900BC
:1002D000290803178D0003132A0803178F008D0ABE
:1002E00003198F0A03100313A70B1E290800AF017F
:1002F0000408AE002F10831B2F14280EF038AA001C
:10030000AA07E23EAB00323EAD0028080F39AB072A
:10031000AB07AD07E93EAC00AC07AC07270E0F39C1
:10032000AC07AD07AC0DAD0DAD09AD0D27080F390C
:10033000AD07AA0D0730A9000A30AD07AC03031CB6
:100340009D29AC07AB03031CA129AB07AA03031C1F
:10035000A529AA07A903031CA9292930840083130E
:1003600007302E052E1384072D30040203192E1793
:100370000008F700031DC4292E1BC4292E1ACC29FE
:10038000AE19C4292030C729AE152E123030F70718
:1003900077080C1EC9299900840A2E1FB429080069
:1003A000320BD329D6294030B300D729B30101300D
:1003B0003102B30733088038B400B5013408B60001
:1003C000482008003008073A0319F0290B3A0319AE
:1003D000F529063A0319FD29023A0319032A082AC6
:1003E0000130B100B200D0210D2AB5010130B600B4
:1003F00048200230B10021200D2A0130B100023026
:10040000B200D0210D2AB5011030B60048200D2AC7
:100410000130B5003008B600482008000B08A800DD
:100420008B13831603178C170C1400000000831223
:100430000313A81B8B170318452A03170C087F39D1
:100440000313A80003170D080313A90003170F08CF
:100450000313AA002808B000E221290803178D0021
:1004600003132A0803178F0003130B08AB008B1329
:10047000831603178C170C1400000000831203135B
:10048000AB1B8B17A70B452A642A03170C0D0E0D07
:100490007F390313A80003170D080313A9000317DE
:1004A0000F080313AA002808B000E2212908031747
:1004B0008D0003132A0803178F008D0A03198F0A72
:1004C00003100313A70B0E2A8A110A127C2CAF010A
:1004D0000408AE002F10831B2F14280EF038AA003A
:1004E000AA07E23EAB00323EAD0028080F39AB0749
:1004F000AB07AD07E93EAC00AC07AC07270E0F39E0
:10050000AC07AD07AC0DAD0DAD09AD0D27080F392A
:10051000AD07AA0D0730A9000A30AD07AC03031CD4
:100520008D2AAC07AB03031C912AAB07AA03031C5B
:10053000952AAA07A903031C992A2930840083134A
:1005400007302E052E1384072D30040203192E17B1
:100550000008F700031DB42A2E1BB42A2E1AC62A3F
:10056000AE19B42A2030B72AAE152E123030F70754
:10057000A8010408A7002810831B28147708B000DE
:10058000E22127088400831328188317840A2E1F6A
:10059000A42A08008E30F7002A08F8002908F9007C
:1005A000FA01F808031DDE2A7908F800F90108307D
:1005B000F702F808031DDE2AF701E62A0310F81BEC
:1005C000E52AF90DF80DF703DE2AF8138A110A124D
:1005D000A22C29080319AE2BB5002D080319AE2B48
:1005E000B502031CF82A7F30B5070318AE2BFE2A8C
:1005F0008130B502031CAE2B0319AE2B3508F70072
:10060000F801F901FA01B4012A08B300B3172B0865
:10061000B2002C08B1001930B5003008B10203183F
:10062000212B0130B2020318212BB3020318212B16
:10063000B4020318212BB40AB30AB20A3008B10776
:10064000532B2F08B20203183C2B0130B3020318BE
:100650003C2BB40203183C2BB40AB30A2F08B20790
:100660003008B107031C532BB20A031D532BB30AE6
:10067000031D532BB40A532B2E088038B3020318E2
:10068000522B0130B4020318522BB40A2E088038C2
:10069000B3072F08B207031C302BB30A031D302BFE
:1006A000B40A302B7A14B50B562B612B0310B10D05
:1006B000B20DB30DB40D0310FA0DF90DF80DB60D12
:1006C0000D2B361C692B0310F80CF90CFA0CB60C28
:1006D0006C2BF7030319AE2BB61B952B0310B10D32
:1006E000B20DB30DB40D3008B1020318812B0130E7
:1006F000B2020318812BB3020318812BB402031C2E
:10070000A42B2F08B20203188C2B0130B30203185C
:100710008C2BB402031CA42B2E088038B3020318C0
:10072000952B0130B402031CA42BFA0A031DA42B41
:10073000F90A031DA42BF80A031DA42BF70A0319B9
:10074000AE2BF80CF90CFA0C2A08B5002E08B506E9
:10075000B51FAC2BF817B22BF813B22BF701F80129
:10076000F901FA018A110A12B32C8E30F70027081A
:10077000F7022808F9002908F800F917F708031903
:10078000CC2B0310F908031DC82BF8080319CC2B38
:10079000F90CF80CF70BC12BA81FD32BF809F9099A
:1007A000F80A0319F90A8A110A12BC2C03081F3926
:1007B0008300713083168F0090010F080317871193
:1007C0000C3003139900A2309800903083129800E7
:1007D000FF30A400A601A501831603170908C0393C
:1007E000890003131F129F12003003178800831221
:1007F000870188018901831303138828BF3083167A
:1008000087008312A4008316091489140915891519
:1008100003170908C039890003131F129F12803083
:1008200003178800831203131F179F1783169F1740
:1008300083121F1441300C1E1B2C99000430031727
:100840008D0000308F000313C6200D300C1E262CA7
:1008500099000A300C1E2A2C99000230A70096300D
:10086000B1002120A70B2F2C42300C1E352C9900F3
:100870000D300C1E392C99000230A7009630B100C3
:100880002120A70B3E2C063003178D0000308F006F
:100890000313C6200D300C1E4B2C99000A300C1E81
:1008A0004F2C99000230A7009630B1002120A70BF1
:1008B000542C0C3003178D0000308F0003100630CD
:1008C0000313A7001E210A3084002108A800200875
:1008D000A70077210D300C1E6B2C99000130B10060
:1008E000B200D021123003178D0000308F000310AA
:1008F00006300313A7000E2A0A3084002108A8003E
:100900002008A7006722A00A0319A10A1C30F800DA
:100910001F08C33978049F000D30F700F70B8E2CA9
:100920009F149F18912C1E08F90083161E08F800CA
:1009300079088312A8007808A7002808AA00780878
:10094000A900CA2A7A08AC007908AB007808AA0086
:100950007708A900AA30B000F130AF000230AE0035
:100960008030AD00E92A7A08AA007908A900780841
:10097000A8007708A700B52B7908A3007808A20083
:10098000183003178D0000308F0003100C30031354
:10099000A7001E210A3084002308A8002208A7000F
:1009A00077210D300C1ED22C99000130B10002309D
:1009B000B200D0215430B000E2213D30B000E2213D
:1009C0000A3084002308A8002208A7006722DF302D
:0E09D000B000E2214330B000E2211A2C630097
:04400E00E42FFF3F5D
:00000001FF
;PIC16F887
;CRC=4810  CREATED="14-May-23 00:07"
