:1000000002308A001C2A0000C830EE206E34D43A38
:100010000000D630EC3A65103D1025183332000050
:10002000D630EC3A65103D10251833320001D63039
:10003000EC3A65103D102518333200002A30840058
:1000400083130008031932280130F800F701F70B79
:100050002728F80B26284A30F700F70B2D283028E0
:10006000800B24280800310EF039F7000F30080506
:1000700077048800000008143D28081008000808CC
:10008000F700080E0F39F8000800831608108810D2
:100090000811831288100F3083160805F038880085
:1000A000831208150000081400003F207808B100F2
:1000B00008100000081400003F207808B000081065
:1000C0000F308316080588008312310EF700F030D8
:1000D000F70577083004F8007808B000B01B4B280B
:1000E0002E1C88102E18881400000811000008101B
:1000F0002F0EB0000F30B0053008B10033202F08AC
:100100000F39B000B100332008002830A4000C30B3
:10011000A5000130A6000630A700081088100811BD
:100120000F308316080588000810881008110F305A
:100130008312AA001E200130A3002308033C031CE5
:10014000A9280330B10033200530AA001E20A30ADD
:100150009D280230B10033200530AA001E20A301E3
:100160002308033C031CC028243023078400831386
:100170000008A800AE012808AF004520A30AB02857
:100180008A110A122A2A2B0BC628C9284030AC0033
:10019000CA28AC0101302A02AC072C088038AD0017
:1001A000AE012D08AF00452008002908073A0319C1
:1001B000E3280B3A0319E828063A0319F028023A13
:1001C0000319F628FB280130AA00AB00C320002940
:1001D000AE010130AF0045200230AA001E200029E8
:1001E0000130AA000230AB00C3200029AE0110305C
:1001F000AF00452000290130AE002908AF0045209E
:1002000008000B08A3008B13831603178C170C141C
:100210000000000083120313A31B8B1703170C08A5
:100220007F39031955290313A30003170D0803137E
:10023000A40003170F080313A5002308A900D52065
:10024000240803178D000313250803178F000313D9
:100250000B08A6008B13831603178C170C140000D1
:10026000000083120313A61B8B1703170C0D0E0D32
:100270007F39031955290313A30003170D0803132E
:10028000A40003170F080313A5002308A900D52015
:10029000240803178D000313250803178F008D0A08
:1002A00003198F0A03130129031703138A110A1272
:1002B000352A0B08A4008B13831603178C170C1414
:1002C0000000000083120313A41B8B17031890294E
:1002D00003170C087F390313A40003170D08031339
:1002E000A50003170F080313A6002408A900D520B2
:1002F000250803178D000313260803178F00031327
:100300000B08A7008B13831603178C170C1400001F
:10031000000083120313A71B8B17A30B9029AF298F
:1003200003170C0D0E0D7F390313A40003170D08DE
:100330000313A50003170F080313A6002408A90040
:10034000D520250803178D000313260803178F00F7
:100350008D0A03198F0A03100313A30B59290800F0
:100360002A08F80129020318B8292908F700C42926
:10037000F7010830AB00A90DF70D2A087702031822
:10038000F700F80DAB0BBB2908002030241E3030DD
:10039000A5002308F700A31FD529F709F70A770856
:1003A000A3002D30A500A41724142308A90064304D
:1003B000AA00B0217708A30030307807A6002308F0
:1003C000A9000A30AA00B02130307707A8003030E9
:1003D0007807A7002508F700303026020319F42912
:1003E000A414A41B2415082A2419082A2508A600E9
:1003F000A418FF29303027020319022A2414A41B51
:10040000A414082A031D2414031D082A2608A70083
:1004100024190F2AA418122A2418152A182A250884
:10042000A900D5202608A900D5202708A900D52095
:100430002808A900D520080003081F398300A2015D
:10044000A10183161F149F141F159F11831383127C
:10045000A00185280130AA00AB00C3200430031797
:100460008D0000308F0003130129FF3083168600B2
:1004700081130614831206185E2A3230AA001E2049
:10048000A00A0130AA00AB00C320093003178D0079
:1004900000308F00031008300313A30059212008F7
:1004A000A3000330A400C521831606148312061886
:1004B0005D2A3230AA001E20542AAD2A83168614E3
:1004C00083128618882A3230AA001E20A003200832
:1004D000FF3C0319A0010130AA00AB00C32010307B
:1004E00003178D0000308F00031008300313A300A2
:1004F00059212008A3000330A400C52183168614C7
:1005000083128618872A3230AA001E207E2AAD2A3E
:100510008316061583120619AD2A3230AA001E2052
:10052000A0010130AA00AB00C320173003178D00D3
:1005300000308F00031008300313A3005921200856
:10054000A3000330A400C5218316061583120619E3
:10055000AD2A3230AA001E20A42A8316392A63004D
:02400E00713F00
:00000001FF
;PIC16F877
;CRC=86C4  CREATED="24-Mar-23 23:43"
