:1000000003308A00372B0000433448343134003445
:1000100043344834323400344334483431342634A1
:1000200032340034533454344F3450340034432485
:10003000B11E2518B33A00004324B21E4F234600D8
:100040005B3C5D005B245D005B265D004324B21ECB
:100050002518B33A00014324B11E4F2346005B3CF0
:100060005D005B245D005B265D004324B11E251806
:10007000B33A00014324B21E2518B33A00015B24B1
:100080005D005B265D005B245D005B265D00432414
:10009000B11E4F2346005B3C5D004324B21E4F233C
:1000A00046005B3C5D002C3084008313000803197C
:1000B00066280630F800F701F70B5C28F80B5B2880
:1000C0007B30F700F70B6228800B59280800330EAD
:1000D000F039F7000F300805770488000000081495
:1000E0000330F700F70B7228081008000808F70023
:1000F000080E0F39F8000800831608108810081140
:10010000831288100F3083160805F0388800831298
:10011000081500000814000076207808B3000810C5
:100120000000081493289428000076207808B20074
:1001300008100F308316080588008312330EF7006D
:10014000F030F70577083204F8007808B200B21BE7
:100150008228301C88103018881400000811000014
:100160000810310EB2000F30B2053208B30067201C
:1001700031080F39B200B300672008002830A8000A
:100180000C30A9000130AA000630AB00081088101E
:1001900008110F3083160805880008108810081110
:1001A0000F308312AC0053200130A7002708033C16
:1001B000031CE2280330B30067200530AC00532055
:1001C000A70AD6280230B30067200530AC005320C0
:1001D000A7012708033C031CF928283027078400BF
:1001E00083130008AC00B0012C08B1007C20A70AE2
:1001F000E9288A110A127A2B8E30F7002A08F800B3
:100200002908F900FA01F808031D10297908F800F7
:10021000F9010830F702F808031D1029F701182921
:100220000310F81B1729F90DF80DF7031029F8131F
:10023000080029080319DE29B5002D080319DE2955
:10024000B502031C28297F30B5070318DE292E29A3
:100250008130B502031CDE290319DE293508F700B9
:10026000F801F901FA01B4012A08B300B3172B0809
:10027000B2002C08B1001930B5003008B1020318E3
:1002800051290130B20203185129B3020318512930
:10029000B40203185129B40AB30AB20A3008B107EC
:1002A00083292F08B20203186C290130B302031806
:1002B0006C29B40203186C29B40AB30A2F08B207D8
:1002C0003008B107031C8329B20A031D8329B30A2E
:1002D000031D8329B40A83292E088038B30203182A
:1002E00082290130B40203188229B40A2E0880380A
:1002F000B3072F08B207031C6029B30A031D602946
:10030000B40A60297A14B50B862991290310B10D1E
:10031000B20DB30DB40D0310FA0DF90DF80DB60DB5
:100320003D29361C99290310F80CF90CFA0CB60C6F
:100330009C29F7030319DE29B61BC5290310B10D4B
:10034000B20DB30DB40D3008B1020318B12901305C
:10035000B2020318B129B3020318B129B402031C75
:10036000D4292F08B2020318BC290130B3020318A4
:10037000BC29B402031CD4292E088038B302031808
:10038000C5290130B402031CD429FA0A031DD4295B
:10039000F90A031DD429F80A031DD429F70A031901
:1003A000DE29F80CF90CFA0C2A08B5002E08B5065F
:1003B000B51FDC29F817E229F813E229F701F80143
:1003C000F901FA0108008E30F7002708F702280823
:1003D000F9002908F800F917F7080319FA2903109A
:1003E000F908031DF629F8080319FA29F90CF80C85
:1003F000F70BEF29A81F012AF809F909F80A0319D0
:10040000F90A08002D0B052A082A4030AE00092AF7
:10041000AE0101302C02AE072E088038AF00B001CB
:100420002F08B1007C2008002B08073A0319222A64
:100430000B3A0319272A063A03192F2A023A0319FD
:10044000352A3A2A0130AC00AD0002223F2AB00121
:100450000130B1007C200230AC0053203F2A013033
:10046000AC000230AD0002223F2AB0011030B100D2
:100470007C203F2A0130B0002B08B1007C2008000E
:100480000B08A8008B13831603178C170C1400009D
:10049000000083120313A81B8B170318772A031776
:1004A0000C087F390313A80003170D080313A900D4
:1004B00003170F080313AA002808AB001422290809
:1004C00003178D0003132A0803178F0003130B086B
:1004D000AB008B13831603178C170C14000000005D
:1004E00083120313AB1B8B17A70B772A962A0317CC
:1004F0000C0D0E0D7F390313A80003170D0803130D
:10050000A90003170F080313AA002808AB00142240
:10051000290803178D0003132A0803178F008D0A7B
:1005200003198F0A03100313A70B402A08002A0897
:10053000F801290203189F2A2908F700AB2AF701BE
:100540000830AB00A90DF70D2A0877020318F70051
:10055000F80DAB0BA22A080078082708A900643020
:10056000AA0097227708A70078083030031DBF2A19
:10057000A81CC62AA819C62A281A2030C22AA811DF
:1005800028122814F8077808AB0014222708A900BD
:100590000A30AA0097227708A70078083030031D98
:1005A000D72AA819DB2A281CDB2A281A2030F807AA
:1005B0007808AB0014223030A7072708AB001422BC
:1005C00008000B08A7008B13831603178C170C1455
:1005D0000000000083120313A71B8B1703170C08DE
:1005E0007F390319352B0313A70003170D080313D5
:1005F000A80003170F080313A9002708AB00142253
:10060000280803178D000313290803178F0003130D
:100610000B08AA008B13831603178C170C14000009
:10062000000083120313AA1B8B1703170C0D0E0D6A
:100630007F390319352B0313A70003170D08031384
:10064000A80003170F080313A9002708AB00142202
:10065000280803178D000313290803178F008D0A3C
:1006600003198F0A0313E12A031703130800030871
:100670001F39830083160317871508300313990069
:1006800002309A00A6309800903083129800A3019F
:10069000FF30A400A601A501831603170908C0397D
:1006A000890003131F129F12003003178800831262
:1006B0008701880189018313803083160313870023
:1006C0008312A40006308316850083121F179F171C
:1006D00083169F1783121F14831603170908C03946
:1006E000890003131F129F1206300317880083121C
:1006F0000313BE28831605108312051000308C1AD0
:100700000130013C031D882B8C1E842B1A08A0008D
:100710000030FA0004302002031D942BFA08031D58
:10072000942B0130A300B62B0030FA0008302002D1
:10073000031DA02BFA08031DA02B0230A300B62B2B
:100740000030FA000C302002031DAC2BFA08031D08
:10075000AC2B0330A300B62B0030FA00123020027D
:10076000031DB62BFA08031DB62BA3010430F800B5
:100770001F08C33978049F009F149F18BD2B1E08C3
:10078000F90083161E08F80079088312A80078087B
:10079000A7002808AA007808A900FC207A08AC0065
:1007A0007908AB007808AA007708A900AA30B00041
:1007B000F130AF000230AE008030AD0019217A0870
:1007C000AA007908A9007808A8007708A700E32103
:1007D0007808A1000830F8001F08C33978049F008A
:1007E0009F149F18F12B1E08F90083161E08F800AD
:1007F00079088312A8007808A7002808AA007808BA
:10080000A900FC207A08AC007908AB007808AA009F
:100810007708A900AA30B000F130AF000230AE0076
:100820008030AD0019217A08AA007908A90078085B
:10083000A8007708A700E3217808A200230B772CF3
:100840000130AC00AD000222173003178D000030DC
:100850008F00031004300313A70040222108A700D3
:100860000330A800AC22DF30AB0014224330AB00D1
:1008700014220130AC000230AD0002221C300317FC
:100880008D0000308F000313E1220C30AC000230E9
:10089000AD000222203003178D0000308F000313BB
:1008A000E1222108313C0318662C0C30AC000130E9
:1008B000AD000222223003178D0000308F00031399
:1008C000E12283160510831205146B2C0C30AC004A
:1008D0000130AD000222243003178D0000308F005C
:1008E0000313E1228316051083120510932D2308AC
:1008F000023C031DD22C0130AC000230AD000222BC
:10090000263003178D0000308F00031004300313CE
:10091000A70040222208A7000330A800AC22DF3045
:10092000AB0014224330AB0014220130AC00AD0008
:1009300002222B3003178D0000308F000313E122B9
:100940000C30AC000130AD0002222F3003178D00B7
:1009500000308F000313E1222208313C0318C12C20
:100960000C30AC000230AD000222313003178D0094
:1009700000308F000313E122831605108312051443
:10098000C62C0C30AC000230AD000222333003170D
:100990008D0000308F000313E122831605108312AF
:1009A0000510932D2308033C031D5D2D0130AC0081
:1009B000AD000222353003178D0000308F00031088
:1009C00004300313A70040222108A7000330A80029
:1009D000AC22DF30AB0014224330AB0014220130D4
:1009E000AC000230AD0002223A3003178D00003017
:1009F0008F00031004300313A70040222208A70031
:100A00000330A800AC22DF30AB0014224330AB002F
:100A100014222108313C03181E2D0C30AC0001308B
:100A2000AD0002223F3003178D0000308F0003130A
:100A3000E12283160510831205145C2D2108313C38
:100A4000031C332D0C30AC000130AD0002224130CC
:100A500003178D0000308F000313E1228316051069
:100A6000831205105C2D2208313C0318482D0C30F0
:100A7000AC000230AD000222433003178D0000307D
:100A80008F000313E12283160510831205145C2DD9
:100A90002208313C031C5C2D0C30AC000230AD0050
:100AA0000222453003178D0000308F000313E1222E
:100AB0008316051083120510932DA308031D932D93
:100AC00083160510831205100130AC00AD00022220
:100AD000473003178D0000308F000313E1220C30E4
:100AE000AC000130AD0002224B3003178D00003006
:100AF0008F000313E1220130AC000230AD0002226E
:100B00004D3003178D0000308F000313E1220C30AD
:100B1000AC000230AD000222513003178D000030CE
:0A0B20008F000313E1227E2B630017
:04400E00E22FFF3F5F
:00000001FF
;PIC16F887
;CRC=260B  CREATED="30-May-23 16:20"
