:1000000000308A00182800002B3084008313000879
:10001000031917280230F800F701F70B0D28F80B29
:100020000C289730F700F70B1328800B0A280800DC
:1000300003081F398300713083168F0090010F0869
:1000400003170908C039890003131F129F120030DB
:100050000317880083128701880189018313C03048
:100060000313A000F930A100A430A200B030A30017
:100070009930A4009230A5008230A600F830A70085
:100080008030A8009030A90003308316860000302D
:1000900088008312AA0120302A07840083130008F5
:1000A000AB008316880183122B0888008316061480
:1000B0008312061878283230AB000420AA0A2A08D6
:1000C0000A3C031D6428AA0120302A0784008313F8
:1000D0000008AB008316880183122B088800831662
:1000E00006148312061C6F283230AB0004208928C6
:1000F00083168614831286188928AA0120302A07BD
:10010000840083130008AB008316880183122B0838
:0601100088005628630080
:04400E00E52FFF3F5C
:00000001FF
;PIC16F887
;CRC=E914  CREATED="24-Mar-23 19:59"
