:1000000000308A00A7280000FF00030E8301A10032
:100010000A08A0008A010408A2007708A300780853
:10002000A4007908A5007A08A600831383128C30F7
:100030008400001C1D280C182E2822088400230888
:10004000F7002408F8002508F9002608FA0020081F
:100050008A00210E8300FF0E7F0E09008A110A120A
:1000600046282D08F8012C02031839282C08F7001F
:100070004528F7010830AE00AC0DF70D2D087702CA
:100080000318F700F80DAE0B3C280800A70A8E01F4
:100090000B308F00DC308E00000027080A3C031D67
:1000A000A3280108A800A701810148300C1E56288A
:1000B00099005A300C1E5A2899003D300C1E5E28BB
:1000C00099002808AA000330AB002A08AC0064306D
:1000D000AD0031207708AA0078083030031D77285A
:1000E000AB1C7F28AB197F282B1A20307A28AB1144
:1000F0002B122B14F80778080C1E7C2899002A086C
:10010000AC000A30AD0031207708AA007808303002
:10011000031D9028AB1995282B1C95282B1A2030ED
:10012000F80778080C1E922899003030AA072A0890
:100130000C1E982899000D300C1E9C2899000A303E
:100140000C1EA02899000C108A110A121D28030801
:100150001F3983008316031787150830031399008E
:1001600002309A00A6309800903083129800A801BF
:10017000FF30A900831603170908C039890003134B
:100180001F129F1200300317880083128701880115
:100190008901831380308316031387008312A9001B
:1001A00083160108C7392838810083128101353050
:1001B00090008E010B308F00DC308E000000C030CC
:0A01C0008B0483160C14E32863007F
:04400E00E22FFF3F5F
:00000001FF
;PIC16F887
;CRC=8051  CREATED="28-May-23 23:03"
