:1000000003308A00622B00000A108A100A1182074E
:10001000C034F934A434B034993492348234F8348E
:10002000803490345B245D005B265D005B245D00C2
:100030005B265D005B245D005B265D005B245D004C
:100040005B265D00353084008313000803193528D2
:100050000230F800F701F70B2B28F80B2A2897300D
:10006000F700F70B3128800B282808003C0EF039E8
:10007000F7000F30080577048800000008144028B6
:100080004128081008000808F700080E0F39F8008A
:1000900008008316081088100811831288100F308A
:1000A00083160805F038880083120815000008142C
:1000B000000043207808BC000810000008146028E5
:1000C00043207808BB0008100F308316080588000D
:1000D00083123C0EF700F030F70577083B04F80078
:1000E0007808BB00BB1B4F28391C881039188814AE
:1000F00000000811000008103A0EBB000F30BB05CD
:100100003B08BC0036203A080F39BB00BC00362043
:1001100008002830AC000C30AD000130AE000630D5
:10012000AF000810881008110F30831608058800EA
:100130000810881008110F308312B50022200130FA
:10014000AB002B08033C031CAD280330BC00362059
:100150000530B5002220AB0AA1280230BC003620B1
:100160000530B5002220AB012B08033C031CC4283A
:100170002C302B07840083130008B000B90130082D
:10018000BA004920AB0AB4288A110A128A2B8E3091
:10019000F7002E08F8002D08F900FA01F808031DF1
:1001A000DB287908F800F9010830F702F808031D88
:1001B000DB28F701E3280310F81BE228F90DF80DFE
:1001C000F703DB28F81308002B0803195429B300A0
:1001D0002F0803195429B3070318F5287F30B302F9
:1001E000031C542903195429F9288130B307031833
:1001F00054293308F700F801F901FA012C08B70077
:10020000B7172D08B6002E08B5001830B300B4019A
:10021000351C22293208FA07031C1429F90A031D88
:100220001429F80A0319B4173108F907031C1B290C
:10023000F80A0319B4173008AD00AD172D08F807F8
:100240000318B417B40DF80CF90CFA0CB70CB60C73
:10025000B50C0310B30B07290130F7070318542915
:10026000F81B3929B70DFA0DF90DF80DF70303192D
:100270005429B71F4A29FA0A031D4A29F90A031DFE
:100280004A29F80A031D4A29F80CF90CFA0CF70A56
:10029000031954292C08B4003008B406B41F52299D
:1002A000F8175829F8135829F701F801F901FA014C
:1002B0008A110A12C42B2F080319202ABB00330805
:1002C0000319202ABB02031C6A297F30BB070318CD
:1002D000202A70298130BB02031C202A0319202AFE
:1002E0003B08F700F801F901FA01BA013008B9003A
:1002F000B9173108B8003208B7001930BB0036080A
:10030000B702031893290130B80203189329B902E0
:1003100003189329BA0203189329BA0AB90AB80A2A
:100320003608B707C5293508B8020318AE290130C9
:10033000B9020318AE29BA020318AE29BA0AB90ADB
:100340003508B8073608B707031CC529B80A031DC6
:10035000C529B90A031DC529BA0AC5293408803838
:10036000B9020318C4290130BA020318C429BA0A11
:1003700034088038B9073508B807031CA229B90A20
:10038000031DA229BA0AA2297A14BB0BC829D329B2
:100390000310B70DB80DB90DBA0D0310FA0DF90D14
:1003A000F80DBC0D7F293C1CDB290310F80CF90C5F
:1003B000FA0CBC0CDE29F7030319202ABC1B072A00
:1003C0000310B70DB80DB90DBA0D3608B7020318F2
:1003D000F3290130B8020318F329B9020318F329ED
:1003E000BA02031C162A3508B8020318FE29013088
:1003F000B9020318FE29BA02031C162A34088038F1
:10040000B9020318072A0130BA02031C162AFA0A95
:10041000031D162AF90A031D162AF80A031D162AB7
:10042000F70A0319202AF80CF90CFA0C3008BB0063
:100430003408BB06BB1F1E2AF817242AF813242AE7
:10044000F701F801F901FA0108008E30F7002B08D6
:10045000F7022C08F9002D08F800F917F70803191E
:100460003C2A0310F908031D382AF80803193C2A0E
:10047000F90CF80CF70B312AAC1F432AF809F909DB
:10048000F80A0319F90A0800F801F901F701FA015D
:100490002E08031D4E2A2D080319682A1030AF00BC
:1004A0000310AB0DAC0DF70DFA0D2E087A02031DEB
:1004B0005B2A2D087702031C642A2D08F702031C0F
:1004C000FA032E08FA020314F80DF90DAF0B502AA7
:1004D0008A110A12522C360B6E2A712A4030B7004C
:1004E000722AB70101303502B70737088038B800E3
:1004F000B9013808BA00492008003408073A03193E
:100500008B2A0B3A0319902A063A0319982A023AC1
:1005100003199E2AA32A0130B500B6006B22A82A2F
:10052000B9010130BA0049200230B5002220A82AC2
:100530000130B5000230B6006B22A82AB901103094
:10054000BA004920A82A0130B9003408BA0049206D
:100550000800B3010408B2003310831B33142C0EBF
:10056000F038AE00AE07E23EAF00323EB1002C08DC
:100570000F39AF07AF07B107E93EB000B007B007CA
:100580002B0E0F39B007B107B00DB10DB109B10D88
:100590002B080F39B107AE0D0730AD000A30B10797
:1005A000B003031CCF2AB007AF03031CD32AAF0745
:1005B000AE03031CD72AAE07AD03031CDB2A2D3084
:1005C000840083130730320532138407313004026C
:1005D000031932170008F700031DF62A321BF62A0A
:1005E000321A082BB219F62A2030F92AB215321223
:1005F0003030F707AC010408AB002C10831B2C141F
:100600007708B4007D222B08840083132C188317ED
:10061000840A321FE62A08000B08AB008B138316EE
:1006200003178C170C140000000083120313AB1B7C
:100630008B1703170C087F390319602B0313AB00CA
:1006400003170D080313AC0003170F080313AD00C5
:100650002B08B4007D222C0803178D0003132D08EE
:1006600003178F0003130B08AE008B1383160317B9
:100670008C170C140000000083120313AE1B8B17A1
:1006800003170C0D0E0D7F390319602B0313AB00FC
:1006900003170D080313AC0003170F080313AD0075
:1006A0002B08B4007D222C0803178D0003132D089E
:1006B00003178F008D0A03198F0A03130C2B0317DE
:1006C0000313080003081F398300713083168F005D
:1006D00090010F08FF308312A800AA01A901831618
:1006E00003170908C039890003131F129F12003035
:1006F000031788008312870188018901831303305F
:1007000083160313850006308600003087008312AD
:10071000A8008928831603170908C0398900031324
:100720001F129F120F3003178800831203131F1725
:100730009F1783169F1783121F140C30F8001F0891
:10074000C33978049F009F149F18A42B1E08F9003A
:1007500083161E08F8007908FA001E088312AD00FF
:100760007908AE00C720A430AE007030AD007D30F7
:10077000AC007E30AB007A08B2007908B10078088E
:10078000B0007708AF00E4287A08AE007908AD0021
:100790007808AC007708AB007A08B2007908B1009D
:1007A0007808B0007708AF001430B600AE30B5005E
:1007B0002330B4008230B3005B217A08AE007908A0
:1007C000AD007808AC007708AB0025227908A500B9
:1007D0007808A4000830F8001F08C33978049F0087
:1007E0009F149F18F12B1E08F90083161E08F800AD
:1007F00079088312AC007808AB002C08AE007808AA
:10080000AD00C7207A08B2007908B1007808B000BE
:100810007708AF001430B600AE30B5002330B40016
:100820008230B3005B217A08AE007908AD00780809
:10083000AC007708AB007A08B2007908B1007808FC
:10084000B0007708AF00B601B5012030B4008230A7
:10085000B3005B217A08AE007908AD007808AC00DF
:100860007708AB0025227908A7007808A600A7081A
:10087000031D3E2C2608033C0318412CA70103301E
:10088000A600A608031D4A2CA708031D4A2CA70191
:100890000130A6002708AC002608AB00AE010A30E4
:1008A000AD00442A7708AB007A08AC00FA0077085C
:1008B0000420AD008316860183122D088600A7014F
:1008C0000130A60027040319DA2C0030F8001F08B5
:1008D000C33978049F000D30F700F70B6D2C9F147F
:1008E0009F18702C1E08F90083161E08F80079085E
:1008F0008312AC007808AB002C08AE007808AD007D
:10090000C7207A08B2007908B1007808B0007708EB
:10091000AF00AA30B600F130B5000230B40080302C
:10092000B3005B217A08AE007908AD007808AC000E
:100930007708AB0025227908A1007808A0000130D3
:10094000B500B6006B225430B4007D223D30B400B7
:100950007D220A3084002108AC002008AB00A922C7
:10096000DF30B4007D224330B4007D22250821020F
:10097000031CCD2C031DC02C24082002031CCD2CED
:100980000E30B5000130B6006B22123003178D0017
:1009900000308F0003130C23D92C0E30B50001302A
:1009A000B6006B22143003178D0000308F00031344
:1009B0000C23562EA7010230A60027040319562D3A
:1009C0000430F8001F08C33978049F000D30F70089
:1009D000F70BE82C9F149F18EB2C1E08F9008316C8
:1009E0001E08F80079088312AC007808AB002C08C8
:1009F000AE007808AD00C7207A08B2007908B100CF
:100A00007808B0007708AF00AA30B600F130B50022
:100A10000230B4008030B3005B217A08AE00790860
:100A2000AD007808AC007708AB0025227908A30058
:100A30007808A2000130B5000230B6006B225430B5
:100A4000B4007D223D30B4007D220A3084002308AA
:100A5000AC002208AB00A922DF30B4007D22433075
:100A6000B4007D2225082302031C492D031D3C2DC3
:100A700024082202031C492D0E30B5000230B600B6
:100A80006B22163003178D0000308F0003130C23E8
:100A9000552D0E30B5000230B6006B22183003170A
:100AA0008D0000308F0003130C23562EA701033056
:100AB000A60027040319562E0030F8001F08C3397A
:100AC00078049F000D30F700F70B642D9F149F18DA
:100AD000672D1E08F90083161E08F8007908831296
:100AE000AC007808AB002C08AE007808AD00C72039
:100AF0007A08B2007908B1007808B0007708AF0032
:100B0000AA30B600F130B5000230B4008030B30036
:100B10005B217A08AE007908AD007808AC00770850
:100B2000AB0025227908A1007808A0000130B500AB
:100B3000B6006B225430B4007D223D30B4007D22DB
:100B40000A3084002108AC002008AB00A922DF3065
:100B5000B4007D224330B4007D2225082102031C0D
:100B6000C42D031DB72D24082002031CC42D0E30F4
:100B7000B5000130B6006B221A3003178D0000302B
:100B80008F0003130C23D02D0E30B5000130B600BA
:100B90006B221C3003178D0000308F0003130C23D1
:100BA0000430F8001F08C33978049F000D30F700A7
:100BB000F70BD82D9F149F18DB2D1E08F900831604
:100BC0001E08F80079088312AC007808AB002C08E6
:100BD000AE007808AD00C7207A08B2007908B100ED
:100BE0007808B0007708AF00AA30B600F130B50041
:100BF0000230B4008030B3005B217A08AE0079087F
:100C0000AD007808AC007708AB0025227908A30076
:100C10007808A2000130B5000230B6006B225430D3
:100C2000B4007D223D30B4007D220A3084002308C8
:100C3000AC002208AB00A922DF30B4007D22433093
:100C4000B4007D2225082302031C392E031D2C2EFF
:100C500024082202031C392E0E30B5000230B600E3
:100C60006B221E3003178D0000308F0003130C23FE
:100C7000452E0E30B5000230B6006B22203003172F
:100C80008D0000308F0003130C2322082002031D67
:100C9000522E23082102031D522E831605118312A2
:100CA0000515562E83160511831205119D2B630021
:04400E00E42FFF3F5D
:00000001FF
;PIC16F887
;CRC=C3F4  CREATED="04-Apr-23 13:50"
