:1000000002308A00AE2A00005B245D005B265D00A2
:100010005B245D005B265D003030840083130008A4
:1000200003191F280230F800F701F70B1528F80B09
:1000300014289730F700F70B1B28800B12280800B4
:10004000370EF039F7000F300805770488000000FC
:1000500008142A282B28081008000808F700080EA2
:100060000F39F80008008316081088100811831251
:1000700088100F3083160805F038880083120815A1
:100080000000081400002D207808B70008100000B8
:1000900008144A282D207808B60008100F3083165F
:1000A000080588008312370EF700F030F70577084F
:1000B0003604F8007808B600B61B3928341C8810BE
:1000C000341888140000081100000810350EB6001E
:1000D0000F30B6053608B700202035080F39B600B6
:1000E000B700202008002830A7000C30A8000130FD
:1000F000A9000630AA000810881008110F308316D6
:10010000080588000810881008110F308312B0000D
:100110000C200130A6002608033C031C972803305E
:10012000B70020200530B0000C20A60A8B28023032
:10013000B70020200530B0000C20A6012608033CA3
:10014000031CAE2827302607840083130008AB0069
:10015000B4012B08B5003320A60A9E288A110A1282
:10016000CF2A8E30F7002908F8002808F900FA0194
:10017000F808031DC5287908F800F9010830F702CE
:10018000F808031DC528F701CD280310F81BCC285B
:10019000F90DF80DF703C528F8130800280803190E
:1001A0009329B4002C0803199329B402031CDD28F9
:1001B0007F30B40703189329E3288130B402031C6D
:1001C0009329031993293408F700F801F901FA017A
:1001D000B3012908B200B2172A08B1002B08B000F9
:1001E0001930B4002F08B002031806290130B102FB
:1001F00003180629B20203180629B30203180629B8
:10020000B30AB20AB10A2F08B00738292E08B10282
:10021000031821290130B20203182129B30203185F
:100220002129B30AB20A2E08B1072F08B007031C10
:100230003829B10A031D3829B20A031D3829B30A27
:1002400038292D088038B202031837290130B3024B
:1002500003183729B30A2D088038B2072E08B107D2
:10026000031C1529B20A031D1529B30A15297A148E
:10027000B40B3B2946290310B00DB10DB20DB30DDF
:100280000310FA0DF90DF80DB50DF228351C4E29A5
:100290000310F80CF90CFA0CB50C5129F7030319EB
:1002A0009329B51B7A290310B00DB10DB20DB30D12
:1002B0002F08B002031866290130B102031866291D
:1002C000B20203186629B302031C89292E08B10261
:1002D000031871290130B20203187129B302031CFB
:1002E00089292D088038B20203187A290130B30217
:1002F000031C8929FA0A031D8929F90A031D892982
:10030000F80A031D8929F70A03199329F80CF90C37
:10031000FA0C2908B4002D08B406B41F9129F81767
:100320009729F8139729F701F801F901FA01080054
:100330008E30F7002608F7022708F9002808F80091
:10034000F917F7080319AF290310F908031DAB29A2
:10035000F8080319AF29F90CF80CF70BA429A71F0B
:10036000B629F809F909F80A0319F90A0800310B46
:10037000BA29BD294030B200BE29B2010130300295
:10038000B20732088038B300B4013308B500332017
:1003900008002F08073A0319D7290B3A0319DC295B
:1003A000063A0319E429023A0319EA29EF29013030
:1003B000B000B100B721F429B4010130B5003320F9
:1003C0000230B0000C20F4290130B0000230B1003E
:1003D000B721F429B4011030B5003320F4290130DD
:1003E000B4002F08B50033200800AE010408AD00AA
:1003F0002E10831B2E14270EF038A900A907E23E09
:10040000AA00323EAC0027080F39AA07AA07AC079A
:10041000E93EAB00AB07AB07260E0F39AB07AC07C5
:10042000AB0DAC0DAC09AC0D26080F39AC07A90D0E
:100430000730A8000A30AC07AB03031C1B2AAB072C
:10044000AA03031C1F2AAA07A903031C232AA9071E
:10045000A803031C272A28308400831307302D05A6
:100460002D1384072C30040203192D170008F70000
:10047000031D422A2D1B422A2D1A542AAD19422A45
:100480002030452AAD152D123030F707A70104089A
:10049000A6002710831B27147708AF00C921260860
:1004A0008400831327188317840A2D1F322A08001B
:1004B0000B08A6008B13831603178C170C1400006F
:1004C000000083120313A61B8B1703170C087F3938
:1004D0000319AC2A0313A60003170D080313A70082
:1004E00003170F080313A8002608AF00C921270827
:1004F00003178D000313280803178F0003130B083D
:10050000A9008B13831603178C170C14000000002E
:1005100083120313A91B8B1703170C0D0E0D7F39C4
:100520000319AC2A0313A60003170D080313A70031
:1005300003170F080313A8002608AF00C9212708D6
:1005400003178D000313280803178F008D0A031962
:100550008F0A0313582A03170313080003081F39CF
:100560008300713083168F0090010F088312A5015C
:10057000A401831603170908C039890003131F1249
:100580009F120030031788008312870188018901B8
:100590008313033083160313850083127328831695
:1005A00003170908C039890003131F129F12033073
:1005B00003178800831203131F179F1783169F17B3
:1005C00083121F140030F8001F08C33978049F00FD
:1005D0000D30F700F70BEA2A9F149F18ED2A1E082A
:1005E000F90083161E08F80079088312A70078081E
:1005F000A6002708A9007808A800B1207A08AB0057
:100600007908AA007808A9007708A800AA30AF00E6
:10061000F130AE000230AD008030AC00CE207A0860
:10062000A9007908A8007808A7007708A6009821F3
:100630007908A1007808A0000130B000B100B7210E
:100640005430AF00C9213D30AF00C9210A308400C9
:100650002108A7002008A600F521DF30AF00C9213E
:100660004330AF00C921A108031D3A2B2008633C89
:100670000318472B0E30B0000130B100B721043011
:1006800003178D0000308F0003135822532B0E30B8
:10069000B0000130B100B721063003178D000030E3
:1006A0008F00031358220430F8001F08C339780460
:1006B0009F000D30F700F70B5B2B9F149F185E2BEC
:1006C0001E08F90083161E08F80079088312A70097
:1006D0007808A6002708A9007808A800B1207A08A1
:1006E000AB007908AA007808A9007708A800AA300A
:1006F000AF00F130AE000230AD008030AC00CE2053
:100700007A08A9007908A8007808A7007708A60049
:1007100098217908A3007808A2000130B0000230C7
:10072000B100B7215430AF00C9213D30AF00C9211D
:100730000A3084002308A7002208A600F521DF3034
:10074000AF00C9214330AF00C921A308031DAC2B62
:100750002208633C0318B92B0E30B0000230B10000
:10076000B721083003178D0000308F000313582283
:10077000C52B0E30B0000230B100B7210A3003178C
:100780008D0000308F000313582222082002031D21
:10079000D22B23082102031DD22B831605118312AD
:1007A0000515D62B8316051183120511E22A630065
:04400E00E42FFF3F5D
:00000001FF
;PIC16F887
;CRC=1490  CREATED="03-Apr-23 23:37"
